:020000040800F2
:1000000000500020C1260008BD240008C3240008B9
:10001000C9240008CF240008D524000800000000EF
:10002000000000000000000000000000DB240008C9
:10003000E724000800000000F32400080125000860
:1000400009270008092700080927000809270008D0
:1000500009270008092700080927000809270008C0
:1000600009270008092700080927000809270008B0
:1000700009270008092700080927000809270008A0
:100080000927000809270008092700080927000890
:100090000927000809270008092700080927000880
:1000A0000927000809270008092700080927000870
:1000B0000927000809270008092700080927000860
:1000C0000927000809270008092700080927000850
:1000D0000927000809270008092700080927000840
:1000E0000927000809270008092700080000000068
:1000F0000000000000000000000000000000000000
:0C01000000000000000000005FF808F1A3
:1001100010B5054C237833B9044B13B10448AFF341
:1001200000800123237010BDF401002000000000B6
:10013000ECC8000808B5034B1BB103490348AFF3F3
:10014000008008BD00000000F8010020ECC8000895
:10015000034613F8012B002AFBD1181A0138704707
:1001600081F0004102E000BF83F0004330B54FEA68
:1001700041044FEA430594EA050F08BF90EA020FD5
:100180001FBF54EA000C55EA020C7FEA645C7FEA68
:10019000655C00F0E2804FEA5454D4EB5555B8BF8B
:1001A0006D420CDD2C4480EA020281EA030382EAFC
:1001B000000083EA010180EA020281EA0303362D8E
:1001C00088BF30BD11F0004F4FEA01314FF4801C61
:1001D0004CEA113102D0404261EB410113F0004F73
:1001E0004FEA03334CEA133302D0524263EB43032A
:1001F00094EA050F00F0A780A4F10104D5F1200EC8
:100200000DDB02FA0EFC22FA05F2801841F1000122
:1002100003FA0EF2801843FA05F359410EE0A5F1F6
:1002200020050EF1200E012A03FA0EFC28BF4CF027
:10023000020C43FA05F3C01851EBE37101F00045DD
:1002400007D54FF0000EDCF1000C7EEB00006EEBEA
:100250000101B1F5801F1BD3B1F5001F0CD3490874
:100260005FEA30004FEA3C0C04F101044FEA4452CB
:1002700012F5800F80F09A80BCF1004F08BF5FEA52
:10028000500C50F1000041EB045141EA050130BD32
:100290005FEA4C0C404141EB0101013C28BFB1F544
:1002A000801FE9D291F0000F04BF01460020B1FA8F
:1002B00081F308BF2033A3F10B03B3F120020CDA62
:1002C0000C3208DD02F1140CC2F10C0201FA0CF040
:1002D00021FA02F10CE002F11402D8BFC2F1200CA5
:1002E00001FA02F120FA0CFCDCBF41EA0C0190405B
:1002F000E41AA2BF01EB0451294330BD6FEA0404A4
:100300001F3C1CDA0C340EDC04F11404C4F120028E
:1003100020FA04F001FA02F340EA030021FA04F3A0
:1003200045EA030130BDC4F10C04C4F1200220FAF7
:1003300002F001FA04F340EA0300294630BD21FA35
:1003400004F0294630BD94F0000F83F4801306BFFB
:1003500081F480110134013D4EE77FEA645C18BFEF
:100360007FEA655C29D094EA050F08BF90EA020F86
:1003700005D054EA000C04BF1946104630BD91EA7E
:10038000030F1EBF0021002030BD5FEA545C05D181
:100390004000494128BF41F0004130BD14F58004C0
:1003A0003CBF01F5801130BD01F0004545F0FE4134
:1003B00041F470014FF0000030BD7FEA645C1ABF69
:1003C000194610467FEA655C1CBF0B46024650EAA0
:1003D000013406BF52EA033591EA030F41F40021CC
:1003E00030BD00BF90F0000F04BF0021704730B552
:1003F0004FF4806404F132044FF000054FF0000127
:1004000050E700BF90F0000F04BF0021704730B5E7
:100410004FF4806404F1320410F0004548BF4042BC
:100420004FF000013EE700BF42004FEAE2014FEA11
:1004300031014FEA02701FBF12F07F4393F07F4FEC
:1004400081F06051704732F07F4208BF704793F0EF
:100450007F4F04BF41F40021704730B54FF4607402
:1004600001F0004521F000411CE700BF50EA010205
:1004700008BF704730B54FF000050AE050EA0102AE
:1004800008BF704730B511F0004502D5404261EB1E
:1004900041014FF4806404F132045FEA915C3FF45F
:1004A000D8AE4FF003025FEADC0C18BF03325FEAFC
:1004B000DC0C18BF033202EBDC02C2F1200300FAAD
:1004C00003FC20FA02F001FA03FE40EA0E0021FAD2
:1004D00002F11444BDE600BF70B54FF0FF0C4CF4C0
:1004E000E06C1CEA11541DBF1CEA135594EA0C0F72
:1004F00095EA0C0F00F0DEF82C4481EA030621EAAD
:100500004C5123EA4C5350EA013518BF52EA0335E7
:1005100041F4801143F4801338D0A0FB02CE4FF099
:100520000005E1FB02E506F00042E0FB03E54FF0C9
:100530000006E1FB03569CF0000F18BF4EF0010EC1
:10054000A4F1FF04B6F5007F64F5407404D25FEABD
:100550004E0E6D4146EB060642EAC62141EA555170
:100560004FEAC52040EA5E504FEACE2EB4F1FD0CB2
:1005700088BFBCF5E06F1ED8BEF1004F08BF5FEA30
:10058000500E50F1000041EB045170BD06F00046E2
:1005900046EA010140EA020081EA0301B4EB5C048F
:1005A000C2BFD4EB0C0541EA045170BD41F4801187
:1005B0004FF0000E013C00F3AB8014F1360FDEBFAC
:1005C000002001F0004170BDC4F10004203C35DA88
:1005D0000C341BDC04F11404C4F1200500FA05F30B
:1005E00020FA04F001FA05F240EA020001F00042AC
:1005F00021F0004110EBD37021FA04F642EB060122
:100600005EEA430E08BF20EAD37070BDC4F10C044B
:10061000C4F1200500FA04F320FA05F001FA04F20F
:1006200040EA020001F0004110EBD37041F10001FB
:100630005EEA430E08BF20EAD37070BDC4F1200506
:1006400000FA05F24EEA020E20FA04F301FA05F26E
:1006500043EA020321FA04F001F0004121FA04F216
:1006600020EA020000EBD3705EEA430E08BF20EAE6
:10067000D37070BD94F0000F0FD101F00046400020
:1006800041EB010111F4801F08BF013CF7D041EAA2
:10069000060195F0000F18BF704703F000465200A6
:1006A00043EB030313F4801F08BF013DF7D043EA77
:1006B0000603704794EA0C0F0CEA135518BF95EA2D
:1006C0000C0F0CD050EA410618BF52EA4306D1D1B4
:1006D00081EA030101F000414FF0000070BD50EAD3
:1006E000410606BF1046194652EA430619D094EA5D
:1006F0000C0F02D150EA013613D195EA0C0F05D147
:1007000052EA03361CBF104619460AD181EA03019A
:1007100001F0004141F0FE4141F470014FF0000052
:1007200070BD41F0FE4141F4780170BD70B54FF0ED
:10073000FF0C4CF4E06C1CEA11541DBF1CEA13556D
:1007400094EA0C0F95EA0C0F00F0A7F8A4EB05044F
:1007500081EA030E52EA03354FEA013100F0888046
:100760004FEA03334FF0805545EA131343EA12630F
:100770004FEA022245EA111545EA10654FEA0026C4
:100780000EF000419D4208BF964244F1FD0404F57D
:10079000407402D25B084FEA3202B61A65EB0305D9
:1007A0005B084FEA32024FF480104FF4002CB6EB96
:1007B000020E75EB030E22BFB61A754640EA0C0016
:1007C0005B084FEA3202B6EB020E75EB030E22BF56
:1007D000B61A754640EA5C005B084FEA3202B6EB97
:1007E000020E75EB030E22BFB61A754640EA9C0056
:1007F0005B084FEA3202B6EB020E75EB030E22BF26
:10080000B61A754640EADC0055EA060E18D04FEAE3
:10081000051545EA16754FEA06164FEAC30343EA83
:1008200052734FEAC2025FEA1C1CC0D111F4801F50
:100830000BD141EA00014FF000004FF0004CB6E749
:1008400011F4801F04BF01430020B4F1FD0C88BFE8
:10085000BCF5E06F3FF6AFAEB5EB030C04BFB6EBF3
:10086000020C5FEA500C50F1000041EB045170BDE6
:100870000EF0004E4EEA113114EB5C04C2BFD4EB13
:100880000C0541EA045170BD41F480114FF0000E97
:10089000013C90E645EA060E8DE60CEA135594EA13
:1008A0000C0F08BF95EA0C0F3FF43BAF94EA0C0F16
:1008B0000AD150EA01347FF434AF95EA0C0F7FF48B
:1008C00025AF104619462CE795EA0C0F06D152EADF
:1008D00003353FF4FDAE1046194622E750EA4106C3
:1008E00018BF52EA43067FF4C5AE50EA41047FF4D4
:1008F0000DAF52EA43057FF4EBAE12E74FF0FF3C39
:1009000006E000BF4FF0010C02E000BF4FF0010C09
:100910004DF804CD4FEA410C7FEA6C5C4FEA430C82
:1009200018BF7FEA6C5C1BD001B050EA410C0CBFD1
:1009300052EA430C91EA030F02BF90EA020F002033
:10094000704710F1000F91EA030F58BF994208BF9A
:1009500090422CBFD8176FEAE37040F00100704757
:100960004FEA410C7FEA6C5C02D150EA013C07D1AE
:100970004FEA430C7FEA6C5CD6D152EA033CD3D0F9
:100980005DF8040B704700BF8446104662468C46F3
:100990001946634600E000BF01B5FFF7B7FF002826
:1009A00048BF10F1000F01BD4DF808EDFFF7F4FF4F
:1009B0000CBF012000205DF808FB00BF4DF808EDDA
:1009C000FFF7EAFF34BF012000205DF808FB00BFFD
:1009D0004DF808EDFFF7E0FF94BF012000205DF81F
:1009E00008FB00BF4DF808EDFFF7CEFF94BF0120D4
:1009F00000205DF808FB00BF4DF808EDFFF7C4FFCD
:100A000034BF012000205DF808FB00BF4FEA410C15
:100A10007FEA6C5C02D150EA013C0AD14FEA430CF8
:100A20007FEA6C5C02D152EA033C02D14FF0000035
:100A300070474FF0010070474FEA410212F5001273
:100A400015D211D56FF47873B3EB625212D94FEA15
:100A5000C12343F0004343EA505311F0004F23FAFF
:100A600002F018BF404270474FF00000704750EA54
:100A7000013005D111F0004008BF6FF00040704711
:100A80004FF00000704700BF4FEA4102B2F1E0436F
:100A900024BFB3F5001CDCF1FE5C0DD901F0004C65
:100AA0004FEAC0024CEA5070B2F1004F40EB8300B5
:100AB00008BF20F00100704711F0804F21D113F1E1
:100AC0003872BCBF01F00040704741F480114FEA1A
:100AD0005252C2F11802C2F1200C10FA0CF320FAA3
:100AE00002F018BF40F001004FEAC1234FEAD323C0
:100AF00003FA0CFC40EA0C0023FA02F34FEA43032A
:100B0000CCE77FEA625307D150EA01331EBF4FF0B2
:100B1000FE4040F44000704701F0004040F0FE40CD
:100B200040F40000704700BF4FF0FF0C1CEAD052A9
:100B30001EBF1CEAD15392EA0C0F93EA0C0F6FD040
:100B40001A4480EA010C400218BF5FEA41211ED01E
:100B50004FF0006343EA501043EA5111A0FB01310A
:100B60000CF00040B1F5000F3EBF490041EAD371DF
:100B70005B0040EA010062F17F02FD2A1DD8B3F15B
:100B8000004F40EBC25008BF20F00100704790F0CA
:100B9000000F0CF0004C08BF49024CEA502040EA1C
:100BA00051207F3AC2BFD2F1FF0340EAC2507047E2
:100BB00040F400004FF00003013A5DDC12F1190F20
:100BC000DCBF00F000407047C2F10002410021FA92
:100BD00002F1C2F1200200FA02FC5FEA310040F1AA
:100BE000000053EA4C0308BF20EADC70704792F023
:100BF000000F00F0004C02BF400010F4000F013A5B
:100C0000F9D040EA0C0093F0000F01F0004C02BF55
:100C1000490011F4000F013BF9D041EA0C018FE7C4
:100C20000CEAD15392EA0C0F18BF93EA0C0F0AD0CA
:100C300030F0004C18BF31F0004CD8D180EA0100F0
:100C400000F00040704790F0000F17BF90F0004F89
:100C5000084691F0000F91F0004F14D092EA0C0F6B
:100C600001D142020FD193EA0C0F03D14B0218BFFE
:100C7000084608D180EA010000F0004040F0FE4044
:100C800040F40000704740F0FE4040F440007047E0
:100C90004FF0FF0C1CEAD0521EBF1CEAD15392EA5F
:100CA0000C0F93EA0C0F69D0A2EB030280EA010C4F
:100CB00049024FEA402037D04FF0805343EA1111E8
:100CC00043EA10130CF000408B4238BF5B0042F146
:100CD0007D024FF4000C8B4224BF5B1A40EA0C00EB
:100CE000B3EB510F24BFA3EB510340EA5C00B3EB1D
:100CF000910F24BFA3EB910340EA9C00B3EBD10F0B
:100D000024BFA3EBD10340EADC001B0118BF5FEA5C
:100D10001C1CE0D1FD2A3FF650AF8B4240EBC25085
:100D200008BF20F0010070470CF0004C4CEA502046
:100D30007F32C2BFD2F1FF0340EAC250704740F495
:100D400000004FF00003013A37E792F0000F00F087
:100D5000004C02BF400010F4000F013AF9D040EA05
:100D60000C0093F0000F01F0004C02BF490011F499
:100D7000000F013BF9D041EA0C0195E70CEAD15391
:100D800092EA0C0F08D142027FF47DAF93EA0C0F78
:100D90007FF470AF084676E793EA0C0F04D14B025C
:100DA0003FF44CAF08466EE730F0004C18BF31F00E
:100DB000004CCAD130F000427FF45CAF31F0004308
:100DC0007FF43CAF5FE700BF4FF0FF3C06E000BFA1
:100DD0004FF0010C02E000BF4FF0010C4DF804CDC4
:100DE0004FEA40024FEA41037FEA226C18BF7FEAD4
:100DF000236C11D001B052EA530C18BF90EA010FD6
:100E000058BFB2EB030088BFC81738BF6FEAE17064
:100E100018BF40F0010070477FEA226C02D15FEA00
:100E2000402C05D17FEA236CE4D15FEA412CE1D06C
:100E30005DF8040B704700BF844608466146FFE733
:100E40000FB5FFF7C9FF002848BF10F1000F0FBD15
:100E50004DF808EDFFF7F4FF0CBF012000205DF80E
:100E600008FB00BF4DF808EDFFF7EAFF34BF012093
:100E700000205DF808FB00BF4DF808EDFFF7E0FF2C
:100E800094BF012000205DF808FB00BF4DF808ED7D
:100E9000FFF7D2FF94BF012000205DF808FB00BFE0
:100EA0004DF808EDFFF7C8FF34BF012000205DF8C2
:100EB00008FB00BF80B500AF00221021034802F0FC
:100EC00019FC012001F084FC00BF80BD0008014036
:100ED00080B500AF01221021034802F00BFC012075
:100EE00001F076FC00BF80BD0008014080B582B0F3
:100EF00000AF0346FB7100BF084B1B689B6803F003
:100F00000203022BF8D1F91D64230122034803F0E8
:100F100009FA00BF0837BD4680BD00BF402300204E
:100F200080B582B000AF78600B467B8000BF084B75
:100F30001B689B6803F00203022BF8D17A886423B4
:100F40007968034803F0EEF900BF0837BD4680BD5D
:100F50004023002080B584B002AFFF23FB7100BFA7
:100F6000094B1B689B6803F00203022BF8D1BA1DE2
:100F7000F91D642300930123034803F017FBBB7999
:100F800018460837BD4680BD4023002080B582B09A
:100F900000AF7860FFF7DEFF03461A467B681A70E1
:100FA00000BF0837BD4680BD80B582B000AF0A4B98
:100FB0004FF4FA721A80FFF7CDFF0346FB71FB79FD
:100FC000FF2B04D0044B1B889BB2002BF3D1FB7981
:100FD00018460837BD4680BDE423002080B584B0A4
:100FE00000AF41F6FF73FB60FFF772FF0023BB60A9
:100FF00005E0FF20FFF77AFFBB680133BB60BB68E9
:10100000092BF6DDFFF756FF40233B7000237B7072
:101010000023BB700023FB7000233B7195237B7181
:101020003B4606211846FFF77BFF02E0FB68013BC9
:10103000FB60FFF78FFF0346012B02D0FB68002BFC
:10104000F4D1FFF745FFFF20FFF750FF034B0122CC
:101050001A7000BF1037BD4680BD00BF11020020CE
:1010600080B400AF034B00221A7000BFBD4680BCA5
:10107000704700BF1102002080B400AF024B1B7804
:101080001846BD4680BC70471102002080B584B070
:1010900000AF78603960144BC8221A80FFF75AFFFE
:1010A0000346FB73FB7BFF2B04D10F4B1B889BB2CA
:1010B000002BF3D1FB7BFE2B01D000230FE07B68DC
:1010C0005A1C7A601846FFF761FF3B685A1E3A6067
:1010D000002BF4D1FFF73EFFFFF73CFF012318463A
:1010E0001037BD4680BD00BFE223002080B584B02C
:1010F00000AF78600B46FB700023BB73FFF754FF13
:101100000346FF2B01D000232FE0FB781846FFF7A2
:10111000EDFEFB78FD2B20D04FF400717868FFF7CF
:10112000FFFEFFF717FFFFF715FF0BE0FFF712FFBA
:101130000346FB73FB7B03F01F03052B06D0BB7B31
:101140000133BB73BB7B402BF0D900E000BF00BF75
:10115000FFF700FF0346002BFAD0FB7B03F01F03D1
:10116000052B01D1012300E0002318461037BD46AE
:1011700080BD80B584B000AF03463960FB71FFF7D6
:1011800013FF0346FF2B01D0FF2342E0FB791846F3
:10119000FFF7ACFE3B681B0EDBB21846FFF7A6FE5E
:1011A0003B681B0CDBB21846FFF7A0FE3B681B0A2E
:1011B000DBB21846FFF79AFE3B68DBB21846FFF732
:1011C00095FEFB79402B02D19523FB7307E0FB7959
:1011D000482B02D18723FB7301E00123FB73FB7BC8
:1011E0001846FFF783FEFB794C2B01D1FFF7B2FEC7
:1011F0000A23BB73FFF7AEFE03467B7397F90D30EE
:10120000002B05DABB7B013BBB73BB7B002BF1D111
:101210007B7B18461037BD4680BD000090B585B079
:1012200000AF0346FB71FB79002B01D00123D6E010
:101230006D4B1B78DBB203F00203002B03D06A4B2B
:101240001B78DBB2CBE0FFF7C9FEFFF733FE0023CC
:10125000BB7300214020FFF78CFF0346012B40F0B9
:10126000A680624B4FF47A721A804FF4D5714820F1
:10127000FFF77FFF0346012B58D10023FB730CE0DF
:10128000FC7BFFF767FE03461A4604F110033B445C
:1012900003F8082CFB7B0133FB73FB7B032BEFD99B
:1012A000BB7A012B40F08380FB7AAA2B7FD10021EF
:1012B0007720FFF75EFF0346012B07D84FF08041F0
:1012C0006920FFF756FF0346002B05D0474B1B88CC
:1012D0009BB2002BEBD100E000BF444B1B889BB2BC
:1012E000002B64D000217A20FFF743FF0346002B38
:1012F0005DD10023FB730CE0FC7BFFF72BFE034664
:101300001A4604F110033B4403F8082CFB7B01331D
:10131000FB73FB7B032BEFD93B7A03F04003002BDD
:1013200001D00C2300E00423BB7340E000217720B0
:10133000FFF71FFF0346012B08D800216920FFF7A4
:1013400018FF0346012B01D8022300E00123BB73E1
:10135000BB7B022B0ED100217720FFF70AFF03464B
:10136000012B0ED800216920FFF703FF0346002B55
:1013700007D10DE000214120FFF7FBFE0346002BC3
:1013800005D01A4B1B889BB2002BE1D100E000BFB7
:10139000164B1B889BB2002B07D04FF400715020D6
:1013A000FFF7E7FE0346002B01D00023BB73104A72
:1013B000BB7B1370FFF78CFDFFF7CCFDBB7B002BD5
:1013C00008D0094B1B78DBB223F00103DAB2064BDD
:1013D0001A7001E0FFF744FE034B1B78DBB218469E
:1013E0001437BD4690BD00BF00000020E22300205E
:1013F0001002002080B483B000AF0346FB71FB797C
:10140000002B01D0012302E0034B1B78DBB218460E
:101410000C37BD4680BC70470000002080B584B00A
:1014200000AFB9607A603B600346FB73FB7B002B27
:1014300002D13B68002B01D1042351E02A4B1B78D9
:10144000DBB203F00103002B01D0032348E0274B5C
:101450001B7803F00403002B02D17B685B027B60E6
:10146000FFF728FD3B68012B11D179685120FFF768
:1014700080FE0346002B29D14FF40071B868FFF7B6
:1014800005FE0346002B21D000233B601EE0796857
:101490005220FFF76EFE0346002B17D14FF4007168
:1014A000B868FFF7F3FD0346002B0AD0BB6803F5CD
:1014B0000073BB603B68013B3B603B68002BEDD198
:1014C00000E000BF00214C20FFF753FEFFF700FDB6
:1014D000FFF740FD3B68002B14BF01230023DBB264
:1014E00018461037BD4680BD0000002010020020C5
:1014F00080B584B000AFB9607A603B600346FB738F
:10150000FB7B002B02D13B68002B01D104236BE055
:10151000374B1B78DBB203F00103002B01D0032310
:1015200062E0334B1B78DBB203F00403002B01D0E5
:10153000022359E02F4B1B7803F00403002B02D148
:101540007B685B027B60FFF7B5FC3B68012B10D129
:1015500079685820FFF70DFE0346002B3AD1FE2193
:10156000B868FFF7C3FD0346002B33D000233B6070
:1015700030E0204B1B7803F00203002B07D0002142
:101580007720FFF7F6FD39685720FFF7F2FD7968FD
:101590005920FFF7EEFD0346002B1BD1FC21B86854
:1015A000FFF7A4FD0346002B0AD0BB6803F50073C8
:1015B000BB603B68013B3B603B68002BEED100E029
:1015C00000BFFD210020FFF791FD0346002B01D154
:1015D00001233B60FFF77CFCFFF7BCFC3B68002B62
:1015E00014BF01230023DBB218461037BD4680BD6F
:1015F000000000201002002090B58BB000AF034621
:101600003A60FB710B46BB713B683B62FB79002B78
:1016100001D0042315E1012387F82730BB79052B7E
:1016200024D13B6A1B78022B12D0022B1ADC002B30
:1016300002D0012B06D015E0FFF712FD002387F83A
:101640002730FCE0FFF7CAFC002387F82730F6E0DC
:101650003B6A5C1CFFF710FD03462370002387F8EC
:101660002730ECE0042387F82730E8E0774B1B783D
:10167000DBB203F00103002B01D00323E1E0FFF70D
:1016800019FCBB790D2B00F2CB8001A252F823F09C
:101690008B170008C91600087B17000821180008DE
:1016A0002118000821180008211800082118000836
:1016B0002118000821180008211800089D170008AB
:1016C000C1170008E517000800214920FFF751FD68
:1016D0000346002B40F0A88007F10C0310211846A8
:1016E000FFF7D4FC0346002B00F09E803B7B9B0958
:1016F000DBB2012B0ED17B7D9AB23B7D9BB21B02EC
:101700009BB213449BB20133FB83FB8B9A023B6871
:101710001A602EE07B7C03F00F03DAB2BB7DDB099D
:10172000DBB21344DAB27B7D5B00DBB203F006036D
:10173000DBB21344DBB2023387F826303B7D9B09D2
:10174000DBB29AB2FB7C9BB29B009BB213449AB271
:10175000BB7C9B029BB203F440639BB213449BB2DD
:101760000133FB83FA8B97F82630093B9A403B689C
:101770001A60002387F8273056E03B684FF4007268
:101780001A80002387F8273055E0FFF70DFC034649
:10179000FF2B4BD1002387F8273047E00021492059
:1017A000FFF7E7FC0346002B42D11021386AFFF710
:1017B0006DFC0346002B3BD0002387F8273037E031
:1017C00000214A20FFF7D5FC0346002B32D110211F
:1017D000386AFFF75BFC0346002B2BD0002387F809
:1017E000273027E000217A20FFF7C3FC0346002BB7
:1017F00016D1002387F826300BE03C6A631C3B625D
:10180000FFF7A8FB0346237097F82630013387F8CB
:10181000263097F82630032BEFD9002387F827309E
:10182000042387F8273006E000BF04E000BF02E091
:1018300000BF00E000BFFFF74BFBFFF78BFB97F803
:10184000273018462C37BD4690BD00BF0000002051
:1018500080B582B000AF0346FB71FB7903F0010352
:10186000DBB21A464FF480511C4801F043FFFB796C
:101870005B08DBB203F00103DBB21A464FF4005100
:10188000164801F037FFFB799B08DBB203F0010338
:10189000DBB21A464FF48041104801F02BFFFB7970
:1018A000DB08DBB203F00103DBB21A464FF4004160
:1018B0000A4801F01FFF01224FF40071074801F0B0
:1018C00019FF012000F084FF00224FF4007103484B
:1018D00001F010FF00BF0837BD4680BD000C01407D
:1018E00080B582B000AF03460A46FB711346BB7158
:1018F000FB791A464FF48071084801F0FBFEBB7972
:101900001B09DBB21846FFF7A3FFBB791846FFF7A8
:101910009FFF00BF0837BD4680BD00BF000C0140DF
:1019200080B500AF002200210E4801F0E3FE332114
:101930000020FFF7D5FF32210020FFF7D1FF28213B
:101940000020FFF7CDFF0C210020FFF7C9FF062183
:101950000020FFF7C5FF01210020FFF7C1FF00BFF6
:1019600080BD00BF000C014080B582B000AF0346CF
:101970000A46FB711346BB71FB79002B0AD1BB7978
:101980000F2B07D8BB79803BDBB219460020FFF74D
:10199000A7FF0CE0FB79012B09D1BB790F2B06D8EF
:1019A000BB79403BDBB219460020FFF799FF00BF2F
:1019B0000837BD4680BD90B585B000AF7860002384
:1019C000FB730AE0FB7B7A6813441B7819460120FD
:1019D000FFF786FFFB7B0133FB73FC7B7868FEF728
:1019E000B7FB03469C42EDD300BF00BF1437BD4692
:1019F00090BD000080B584B004AF00F087FE00F019
:101A000025F900F01BFA00F0EFF900F079F900F089
:101A1000B5F903F053FA754801F056FB0346002B65
:101A200001D000F087FA724B0093724B00226F498D
:101A3000714800F084FAFFF773FF00210020FFF7E0
:101A400093FF01226D496E4805F008FF03461A46D0
:101A50006C4B1A706B4B1B78002B07D16A48FFF751
:101A6000AAFF4FF4FA6000F0B3FE07E06748FFF703
:101A7000A2FF4FF4FA6000F0ABFEFEE7644A65494E
:101A80005D4800F0C1FB0346634A1360002100205B
:101A9000FFF76AFF604B1B681846FEF7C5FC02465D
:101AA0000B46CDE900235D4A80215D4807F0B0FD7B
:101AB0005B48FFF780FF584B1B685A491846FFF7F1
:101AC000E5F90346002B14D0534B1B6856491846C2
:101AD000FFF7D2F90346002B0BD001220421534813
:101AE00001F008FE01224FF40061504801F002FEAF
:101AF0001FE0494B1B684C491846FFF7D1F90346D4
:101B0000002B0BD000224FF40061484801F0F2FD99
:101B100001220421454801F0EDFD0AE000220421E4
:101B2000424801F0E7FD01224FF400613F4801F017
:101B3000E1FD344B1B78002B35D112223C493D4846
:101B400005F0D6FE03461A462E4B1A702D4B1B7815
:101B5000002B28D1374B03F58053DB6819463548F5
:101B600006F010FD2C4B1B681846FEF75DFC024684
:101B70000B46314909680291CDE900232F4A8021A3
:101B8000274807F045FD2648FEF7E2FA02462C4BAF
:101B90002349284806F0C4F903461A46194B1A701F
:101BA000244806F0C4FC244B1B680233224A13600D
:101BB000194B1B681846FEF737FC02460B46CDE969
:101BC0000023204A8021164807F022FD1448FEF722
:101BD000BFFA03469AB24FF0FF3311491A4802F098
:101BE00098FF4FF47A6000F0F3FD47E710230020E0
:101BF00033331B41666696421402002008C9000870
:101C0000A8020020042300200CC900081CC90008F9
:101C10000000B4420000F041A402002028C90008DE
:101C20002402002000007A4400803B45000C014063
:101C30003CC90008D81200200C23002048C9000825
:101C40000823002064C900089823002080B594B0C0
:101C500000AF07F1280328220021184607F070F88A
:101C600007F1140300221A605A609A60DA601A6160
:101C70003B1D00221A605A609A60DA600123BB6241
:101C80004FF48033FB6200233B630123BB630223D9
:101C90007B644FF48033BB640023FB6407F12803AB
:101CA000184601F03FFD0346002B01D000F042F939
:101CB0000F237B610223BB610023FB614FF4806330
:101CC0003B6200237B6207F114030021184601F0F8
:101CD000ABFF0346002B01D000F02CF902237B6000
:101CE0000023FB603B1D184602F02CF90346002B35
:101CF00001D000F01FF900BF5037BD4680BD000085
:101D000080B584B000AF3B1D00221A605A609A6013
:101D1000184B194A1A60174B00229A60154B012282
:101D20001A73144B00221A75124B4FF46022DA61B9
:101D3000104B00225A600F4B01221A610D4800F02F
:101D40006BFD0346002B01D000F0F4F800237B600C
:101D50000123BB600723FB603B1D1946054801F0CA
:101D60001FF80346002B01D000F0E4F800BF103745
:101D7000BD4680BD102300200024014080B500AF87
:101D8000174B184A1A60164B4FF482725A60144B64
:101D900000229A60124B0022DA60114B00221A6175
:101DA0000F4B00225A610E4B4FF400729A610C4B9C
:101DB0002022DA610A4B00221A62094B00225A6281
:101DC000074B00229A62064B0A22DA62044802F0AC
:101DD00025FA0346002B01D000F0ACF800BF80BD0F
:101DE000402300200030014080B500AF114B124A63
:101DF0001A60104B4FF416525A600E4B00229A6034
:101E00000C4B0022DA600B4B00221A61094B0C22AA
:101E10005A61084B00229A61064B0022DA6105489C
:101E200002F027FE0346002B01D000F083F800BF2C
:101E300080BD00BF982300200038014080B588B0E5
:101E400000AF07F1100300221A605A609A60DA604E
:101E5000354B9B69344A43F010039361324B9B69C5
:101E600003F01003FB60FB682F4B9B692E4A43F085
:101E7000200393612C4B9B6903F02003BB60BB687C
:101E8000294B9B69284A43F004039361264B9B69C5
:101E900003F004037B607B68234B9B69224A43F079
:101EA00008039361204B9B6903F008033B603B6888
:101EB000002210211D4801F01DFC00224FF60431C4
:101EC0001B4801F017FC10233B6101237B610123B8
:101ED000BB610223FB6107F110031946134801F0AF
:101EE00085FA4FF204333B6101237B610123BB611F
:101EF0000223FB6107F1100319460D4801F076FA41
:101F00004FF400633B6111237B610023BB6102231B
:101F1000FB6107F110031946054801F067FA00BF9D
:101F20002037BD4680BD00BF0010024000080140C0
:101F3000000C014080B400AF72B600BFFEE780B471
:101F400085B000AFF860B9607A603B60FB68BA6842
:101F50001A60FB687A685A60FB683A68DA60FB6866
:101F6000BA699A6000BF1437BD4680BC7047000054
:101F7000B0B582B000AF7860396053497868FEF739
:101F800071FF0346002B52D07868FEF74DFA40A34C
:101F9000D3E90023FEF7A0FA02460B4614461D467D
:101FA0007868FEF741FA02460B4620462946FEF7BE
:101FB00093FA02460B4614461D467868FEF734FA3B
:101FC00035A3D3E90023FEF787FA02460B462046E5
:101FD0002946FEF7C9F802460B461046194630A3BB
:101FE000D3E90023FEF7C2F802460B4614461D460D
:101FF0003868FEF719FA4FF00002344BFEF7B4F8D8
:1020000002460B461046194627A3D3E90023FEF7E4
:1020100063FA02460B4620462946FEF7A5F802461B
:102020000B4610461946FEF72FFD034629E0786857
:10203000FEF7FAF91EA3D3E90023FEF74DFA024694
:102040000B4614461D463868FEF7EEF91AA3D3E98D
:102050000023FEF741FA02460B4620462946FEF7CA
:1020600085F802460B461046194615A3D3E900230E
:10207000FEF77CF802460B4610461946FEF704FDB3
:10208000034618460837BD46B0BD00BFAFF3008019
:10209000C7BAB88D06F0363F85CE6BEC12D59B3FA4
:1020A00033E197FA7953F63F92CB7F48BF7D5D3F8E
:1020B0008EFB1787814E6BBF16F3A634F8815FBF86
:1020C000E8310C500115F23F0000A0410080404073
:1020D000B0B586B000AF78607B681B68184600F02A
:1020E00073FC7B681B68C821184600F047FD034657
:1020F000002B01D0364B5CE07B681B68184600F073
:1021000043FE78617B681B68184600F00BFD786918
:10211000FEF768F92AA3D3E90023FEF7DDF90246AA
:102120000B461046194628A3D3E90023FEF7FEFA12
:1021300002460B4610461946FEF7A6FC03463B61D5
:102140004FF000013869FEF797FE0346002B01D0DF
:102150001F4B2EE03869FEF767F902460B4618A1BF
:10216000D1E90001FEF700F802460B4614461D4671
:102170007B689B681846FEF757F902460B462046D7
:102180002946FEF7A9F902460B4614461D46386952
:10219000FEF74AF902460B4620462946FEF7C6FAE4
:1021A00002460B4610461946FEF76EFC0346FB60DE
:1021B000FB6818461837BD46B0BD00BFAFF30080BE
:1021C0006666666666660A400000000000FEAF4074
:1021D000000080BF90B585B000AFF860B9607A604C
:1021E000F868FFF775FF04467968B868FFF7C0FE26
:1021F000034619462046FEF74BFD034618461437A2
:10220000BD4690BD0000000080B584B000AFF8600E
:10221000B9607A607A68B968F868FFF7DBFF024650
:10222000FB68DB6819461046FEF732FD0346184688
:10223000FEF7FAF80AA3D3E9002309F075FC0AA314
:10224000D3E90023FEF748F902460B46104619462B
:10225000FEF71AFC034618461037BD4680BD00BF86
:102260006D6442BFFB2606C08B3D0F4988265D404A
:1022700080B485B000AF154B9B69144A43F001034D
:102280009361124B9B6903F00103BB60BB680F4B6A
:10229000DB690E4A43F08053D3610C4BDB6903F0DA
:1022A00080537B607B680A4B5B68FB60FB6823F0B4
:1022B000E063FB60FB6843F00073FB60044AFB686B
:1022C000536000BF1437BD4680BC70470010024009
:1022D0000000014080B588B000AF786007F11003BE
:1022E00000221A605A609A60DA607B681B68144AA0
:1022F000934221D1134B9B69124A43F400739361BB
:10230000104B9B6903F40073FB60FB680D4B9B69EA
:102310000C4A43F0040393610A4B9B6903F00403E6
:10232000BB60BB6801233B6103237B6107F11003A2
:102330001946054801F05AF800BF2037BD4680BD58
:1023400000240140001002400008014080B588B020
:1023500000AF786007F1100300221A605A609A609B
:10236000DA607B681B681B4A93422FD11A4B9B692A
:10237000194A43F480539361174B9B6903F48053CC
:10238000FB60FB68144B9B69134A43F004039361A1
:10239000114B9B6903F00403BB60BB68A0233B6146
:1023A00002237B610323FB6107F1100319460B48ED
:1023B00001F01CF840233B6100237B610023BB61DB
:1023C00007F110031946054801F010F800BF203747
:1023D000BD4680BD003001400010024000080140B1
:1023E00080B588B000AF786007F1100300221A6052
:1023F0005A609A60DA607B681B681C4A934231D14C
:102400001B4B9B691A4A43F480439361184B9B69A9
:1024100003F48043FB60FB68154B9B69144A43F04F
:1024200004039361124B9B6903F00403BB60BB6818
:102430004FF400733B6102237B610323FB6107F1CF
:10244000100319460B4800F0D1FF4FF480633B6145
:1024500000237B610023BB6107F110031946054887
:1024600000F0C4FF00BF2037BD4680BD00380140EA
:10247000001002400008014080B400AF0D4B1B88E3
:102480009BB2002B06D00B4B1B889BB2013B9AB230
:10249000084B1A80084B1B889BB2002B06D0064BBA
:1024A0001B889BB2013B9AB2034B1A8000BFBD460A
:1024B00080BC7047E2230020E423002080B400AFFA
:1024C000FEE780B400AFFEE780B400AFFEE780B463
:1024D00000AFFEE780B400AFFEE780B400AF00BFFE
:1024E000BD4680BC704780B400AF00BFBD4680BC15
:1024F000704780B400AF00BFBD4680BC704700008D
:1025000080B500AF0A4B1B78DBB20133DAB2084B5F
:102510001A70074B1B78DBB2092B04D9044B00223D
:102520001A70FFF7A9FF00F037F900BF80BD00BFA8
:10253000E023002080B400AF01231846BD4680BCD4
:10254000704780B582B000AF7860396006F0CEFB8E
:10255000034616221A604FF0FF3318460837BD466F
:1025600080BD80B582B000AF78604FF0FF317868F1
:10257000FFF7E7FFFEE780B586B000AFF860B9600F
:102580007A6000237B610AE0AFF300800146BB68FC
:102590005A1CBA60CAB21A707B6901337B617A69CE
:1025A0007B689A42F0DB7B6818461837BD4680BDD1
:1025B00080B586B000AFF860B9607A6000237B61B7
:1025C00009E0BB685A1CBA601B781846AFF300805C
:1025D0007B6901337B617A697B689A42F1DB7B68B6
:1025E00018461837BD4680BD80B483B000AF786010
:1025F0004FF0FF3318460C37BD4680BC704780B49F
:1026000083B000AF786039603B684FF400525A6085
:10261000002318460C37BD4680BC704780B483B099
:1026200000AF7860012318460C37BD4680BC704768
:1026300080B485B000AFF860B9607A6000231846B6
:102640001437BD4680BC704780B586B000AF786057
:10265000144A154BD31A7B617B693B61134B1B6892
:10266000002B02D1114B124A1A60104B1A687B687A
:1026700013443A699A4207D206F038FB03460C220B
:102680001A604FF0FF3309E0084B1B68FB60074BF3
:102690001A687B681344054A1360FB6818461837AC
:1026A000BD4680BD0050002000040000E82300204B
:1026B0003826002080B400AF00BFBD4680BC704704
:1026C000FFF7F8FF0B480C490C4A002302E0D458EE
:1026D000C4500433C4188C42F9D3094A094C00236E
:1026E00001E013600432A242FBD306F005FBFFF7C2
:1026F00081F9704700000020F401002058D3000841
:10270000F401002034260020FEE7000080B500AF71
:10271000084B1B68074A43F010031360032000F0C6
:1027200031FE0F2000F008F8FFF7A2FD0023184645
:1027300080BD00BF0020024080B582B000AF78604D
:10274000124B1A68124B1B7819464FF47A73B3FB7D
:10275000F1F3B2FBF3F3184600F03BFE0346002B07
:1027600001D001230EE07B680F2B0AD80022796884
:102770004FF0FF3000F011FE064A7B681360002323
:1027800000E0012318460837BD4680BD0400002044
:102790000C0000200800002080B400AF054B1B781F
:1027A0001A46054B1B681344034A136000BFBD461D
:1027B00080BC70470C000020EC23002080B400AFE8
:1027C000024B1B681846BD4680BC7047EC230020B6
:1027D00080B584B000AF7860FFF7F0FFB8607B6829
:1027E000FB60FB68B3F1FF3F05D00A4B1B781A462C
:1027F000FB681344FB6000BFFFF7E0FF0246BB68C5
:10280000D31AFA689A42F7D800BF00BF1037BD4606
:1028100080BD00BF0C00002080B586B000AF78609E
:102820000023FB7500233B610023BB600023FB609A
:102830007B68002B01D10123BEE07B689B68002BE5
:102840007B689B6A002B09D17B680022DA627B6877
:10285000002283F824207868FFF73CFD786800F0B8
:10286000F1FB0346FB757B689B6A03F01003002BAA
:1028700040F09980FB7D002B40F095807B689B6A3F
:1028800023F4885323F0020343F002027B689A6228
:102890007B685A687B68DB691A437B681B7B5B003B
:1028A0001343BA681343BB607B689B68B3F5807FB2
:1028B00003D07B689B68012B02D14FF4807300E04A
:1028C00000233A6913433B617B681B7D012B19D1BF
:1028D0007B681B7B002B09D17B689B69013B5A03FA
:1028E0003B69134343F400633B610BE07B689B6AE5
:1028F00043F020027B689A627B68DB6A43F0010246
:102900007B68DA627B681B685B6823F469417B68DB
:102910001B683A690A435A607B681B689A68284BAF
:1029200013407A681268B9680B4393607B689B68B0
:10293000B3F5807F03D07B689B68012B04D17B6853
:102940001B69013B1B05FB607B681B68DB6A23F48A
:1029500070017B681B68FA680A43DA627B681B684F
:102960009A68184B1340BA689A420BD17B680022D0
:10297000DA627B689B6A23F0030343F001027B6801
:102980009A6218E07B689B6A23F0120343F01002FE
:102990007B689A627B68DB6A43F001027B68DA62DB
:1029A0000123FB7507E07B689B6A43F010027B689C
:1029B0009A620123FB75FB7D18461837BD4680BD22
:1029C000FDF7E1FFFE0E1FFF80B584B000AF786019
:1029D0000023FB737B6893F82430012B01D1022381
:1029E00098E07B68012283F82420786800F0D0FA10
:1029F0000346FB73FB7B002B40F087807B689B6A60
:102A000023F4407323F0010343F480727B689A62DD
:102A10007B681B68414A934205D1414B5B6803F4D4
:102A20007023002B15D17B689B6A23F480127B688E
:102A30009A627B681B685B6803F48063002B26D076
:102A40007B689B6A23F4405343F480527B689A620C
:102A50001DE07B689B6A43F480127B689A627B6806
:102A60001B682F4A934204D07B681B682B4A934211
:102A70000DD12B4B5B6803F48063002B07D07B6880
:102A80009B6A23F4405343F480527B689A627B68CC
:102A90009B6A03F48053002B06D07B68DB6A23F02B
:102AA00006027B68DA6202E07B680022DA627B68F9
:102AB000002283F824207B681B686FF002021A60F2
:102AC0007B681B689B6803F46023B3F5602F13D108
:102AD0007B681B68114A934205D1114B5B6803F474
:102AE0007023002B08D17B681B689A687B681B6881
:102AF00042F4A0029A600CE07B681B689A687B68CD
:102B00001B6842F480129A6003E07B68002283F81D
:102B10002420FB7B18461037BD4680BD00280140AD
:102B20000024014080B584B000AF78600023FB73BF
:102B30007B6893F82430012B01D102231AE07B68D3
:102B4000012283F82420786800F07CFA0346FB73A6
:102B5000FB7B002B09D17B689B6A23F4885323F00D
:102B6000010343F001027B689A627B68002283F8CC
:102B70002420FB7B18461037BD4680BD90B587B03A
:102B800000AF7860396000237B610023FB60002385
:102B90003B61FFF713FE78617B681B689B6803F459
:102BA0008073002B0BD07B689B6A43F020027B680C
:102BB0009A627B68002283F824200123D3E07B689B
:102BC0001B685B6803F48073002B31D17B681B6842
:102BD000DB6A03F47003002B2AD121E03B68B3F1D8
:102BE000FF3F1DD03B68002B07D0FFF7E7FD0246F3
:102BF0007B69D31A3A689A4212D27B681B681B68B9
:102C000003F00203002B0BD17B689B6A43F00402A4
:102C10007B689A627B68002283F824200323A2E069
:102C20007B681B681B6803F00203002BD6D070E0A2
:102C30004F4B1C68022001F03BFA0346B4FBF3F251
:102C40007B681B6819694B4B0B40002B18D17B68C4
:102C50001B68D968484B0B40002B11D17B681B685F
:102C60001969464B0B40002B08D17B681B68D9685B
:102C7000434B0B40002B01D1142320E029231EE0FD
:102C80007B681B6819693D4B0B40002B06D17B68A4
:102C90001B68D9683A4B0B40002B0DD07B681B6832
:102CA0001969384B0B40002B08D17B681B68D96829
:102CB000344B0B40002B01D1542300E0FC2302FBDA
:102CC00003F33B6121E03B68B3F1FF3F1AD03B685F
:102CD000002B07D0FFF772FD02467B69D31A3A68D2
:102CE0009A420FD2FB683A699A420BD97B689B6A79
:102CF00043F004027B689A627B68002283F82420F8
:102D0000032330E0FB680133FB60FB683A699A42B9
:102D1000D9D87B681B686FF012021A607B689B6AC7
:102D200043F400727B689A627B681B689B6803F4BB
:102D30006023B3F5602F15D17B681B7B002B11D16D
:102D40007B689B6A23F480727B689A627B689B6ACB
:102D500003F48053002B05D17B689B6A43F001028A
:102D60007B689A62002318461C37BD4690BD00BFA1
:102D700004000020244992242449920092244912FC
:102D8000922449004992240080B483B000AF786057
:102D90007B681B68DB6C18460C37BD4680BC7047EF
:102DA00080B485B000AF786039600023FB730023E6
:102DB000BB607B6893F82430012B01D10223DCE057
:102DC0007B68012283F824203B685B68062B1CD8B3
:102DD0007B681B68596B3B685A6813469B00134419
:102DE000053B1F2202FA03F3DB4319403B681868D6
:102DF0003B685A6813469B001344053B00FA03F2F4
:102E00007B681B680A435A633CE03B685B680C2B99
:102E10001CD87B681B68196B3B685A6813469B007B
:102E20001344233B1F2202FA03F3DB4319403B68A0
:102E300018683B685A6813469B001344233B00FA0A
:102E400003F27B681B680A431A631BE07B681B68FC
:102E5000D96A3B685A6813469B001344413B1F22C2
:102E600002FA03F3DB4319403B6818683B685A6871
:102E700013469B001344413B00FA03F27B681B6836
:102E80000A43DA623B681B68092B1CD97B681B6804
:102E9000D9683B681A6813465B0013441E3B07223F
:102EA00002FA03F3DB4319403B6898683B681A68F1
:102EB00013465B0013441E3B00FA03F27B681B6859
:102EC0000A43DA6019E07B681B6819693B681A6875
:102ED00013465B001344072202FA03F3DB43194055
:102EE0003B6898683B681A6813465B00134400FA15
:102EF00003F27B681B680A431A613B681B68102B4E
:102F000003D03B681B68112B32D17B681B681D4ABC
:102F1000934225D17B681B689B6803F40003002B58
:102F200026D17B681B689A687B681B6842F40002A4
:102F30009A603B681B68102B1AD1134B1B68134A0D
:102F4000A2FB03239A0C13469B0013445B00BB6057
:102F500002E0BB68013BBB60BB68002BF9D107E016
:102F60007B689B6A43F020027B689A620123FB73B3
:102F70007B68002283F82420FB7B18461437BD466B
:102F800080BC7047002401400400002083DE1B4306
:102F900080B584B000AF78600023FB600023BB6085
:102FA0007B681B689B6803F00103012B40D07B68A2
:102FB0001B689A687B681B6842F001029A601F4B8D
:102FC0001B681F4AA2FB03239B0CBB6002E0BB688B
:102FD000013BBB60BB68002BF9D1FFF7EFFBF8604A
:102FE0001FE0FFF7EBFB0246FB68D31A022B18D950
:102FF0007B681B689B6803F00103012B11D07B6881
:103000009B6A43F010027B689A627B68DB6A43F03C
:1030100001027B68DA627B68002283F824200123A6
:1030200007E07B681B689B6803F00103012BD8D184
:10303000002318461037BD4680BD00BF04000020A5
:1030400083DE1B4380B584B000AF78600023FB6053
:103050007B681B689B6803F00103012B2ED17B6802
:103060001B689A687B681B6822F001029A60FFF770
:10307000A5FBF8601BE0FFF7A1FB0246FB68D31A33
:10308000022B14D97B681B689B6803F00103012B9A
:103090000DD17B689B6A43F010027B689A627B6863
:1030A000DB6A43F001027B68DA62012307E07B6898
:1030B0001B689B6803F00103012BDCD0002318463A
:1030C0001037BD4680BD000090B587B000AF786076
:1030D0000023FB750023FB607B6893F82430012BF1
:1030E00001D1022397E07B68012283F824207868CD
:1030F000FFF7A8FF0346FB757868FFF749FF034613
:10310000FB75FB7D002B40F081807B689B6A23F47C
:10311000885323F0020343F002027B689A62404B1B
:103120001C68022000F0C4FF0346B4FBF3F35B000D
:10313000FB6002E0FB68013BFB60FB68002BF9D100
:103140007B681B689A687B681B6842F008029A607B
:10315000FFF734FB38611BE0FFF730FB02463B69A9
:10316000D31A0A2B14D97B681B689B6803F00803E9
:10317000002B0DD07B689B6A23F0120343F01002F2
:103180007B689A627B68002283F82420012342E056
:103190007B681B689B6803F00803002BDCD17B680D
:1031A0001B689A687B681B6842F004029A60FFF70C
:1031B00005FB38611BE0FFF701FB02463B69D31AB0
:1031C0000A2B14D97B681B689B6803F00403002B4F
:1031D0000DD07B689B6A23F0120343F010027B68DA
:1031E0009A627B68002283F82420012313E07B6825
:1031F0001B689B6803F00403002BDCD17B689B6A8F
:1032000023F0030343F001027B689A627B6800228B
:1032100083F82420FB7D18461C37BD4690BD00BFB7
:103220000400002080B485B000AF78607B6803F0B4
:103230000703FB600C4BDB68BB60BA684FF6FF030B
:103240001340BB60FB681A02BB68134343F0BF63C3
:1032500043F40033BB60044ABB68D36000BF14373B
:10326000BD4680BC704700BF00ED00E080B400AFF9
:10327000044BDB681B0A03F007031846BD4680BCFD
:10328000704700BF00ED00E080B483B000AF03469C
:103290003960FB7197F90730002B0ADB3B68DAB223
:1032A0000C4997F907301201D2B20B4483F800237E
:1032B0000AE03B68DAB20849FB7903F00F03043BEC
:1032C0001201D2B20B441A7600BF0C37BD4680BC47
:1032D000704700BF00E100E000ED00E080B489B07D
:1032E00000AFF860B9607A60FB6803F00703FB6128
:1032F000FB69C3F10703042B28BF0423BB61FB69EF
:103300000433062B02D9FB69033B00E000237B61F9
:103310004FF0FF32BB6902FA03F3DA43BB681A408D
:103320007B699A404FF0FF317B6901FA03F3D9437F
:103330007B680B40134318462437BD4680BC70475A
:1033400080B582B000AF78607B68013BB3F1807FCD
:1033500001D301230FE00A4A7B68013B53600F2130
:103360004FF0FF30FFF790FF054B00229A60044BAF
:1033700007221A60002318460837BD4680BD00BFEB
:1033800010E000E080B582B000AF78607868FFF7A9
:1033900049FF00BF0837BD4680BD80B586B000AF8D
:1033A0000346B9607A60FB7300237B61FFF75EFF21
:1033B00078617A68B9687869FFF790FF024697F9F3
:1033C0000F3011461846FFF75FFF00BF1837BD46A4
:1033D00080BD80B582B000AF78607868FFF7B0FF3D
:1033E000034618460837BD4680BD000080B48BB048
:1033F00000AF7860396000237B6200233B6269E1A3
:1034000001227B6A02FA03F3FB613B681B68FA69DD
:103410001340BB61BA69FB699A4240F058813B682E
:103420005B689A4A93425ED0984A934275D8984A0C
:10343000934258D0964A93426FD8964A934252D0BC
:10344000944A934269D8944A93424CD0924A934208
:1034500063D8924A934246D0904A93425DD8122B49
:103460002AD8122B59D801A252F823F0E7340008C9
:10347000C1340008D3340008153500081B35000896
:103480001B3500081B3500081B3500081B350008DC
:103490001B3500081B3500081B3500081B350008CC
:1034A0001B3500081B3500081B3500081B350008BC
:1034B000C9340008DD340008794A934213D02CE067
:1034C0003B68DB683B6229E03B68DB6804333B62B6
:1034D00024E03B68DB6808333B621FE03B68DB6845
:1034E0000C333B621AE03B689B68002B02D104233B
:1034F0003B6213E03B689B68012B05D108233B62CC
:103500007B68FA691A6109E008233B627B68FA6903
:103510005A6103E000233B6200E000BFBB69FF2B60
:1035200001D87B6801E07B6804337B61BB69FF2BBA
:1035300002D87B6A9B0002E07B6A083B9B003B61F0
:103540007B691A680F213B6901FA03F3DB431A40D8
:10355000396A3B6901FA03F31A437B691A603B68D5
:103560005B6803F08053002B00F0B1804D4B9B69EA
:103570004C4A43F0010393614A4B9B6903F00103FA
:10358000BB60BB68484A7B6A9B08023352F8233011
:10359000FB607B6A03F003039B000F2202FA03F334
:1035A000DB43FA681340FB607B68404A934213D0C8
:1035B0007B683F4A93420DD07B683E4A934207D0D6
:1035C0007B683D4A934201D1032306E0042304E0D3
:1035D000022302E0012300E000237A6A02F00302E2
:1035E00092009340FA681343FB602F497B6A9B0863
:1035F0000233FA6841F823203B685B6803F48013C8
:10360000002B06D02D4B9A682C49BB6913438B6065
:1036100006E02A4B9A68BB69DB43284913408B605C
:103620003B685B6803F40013002B06D0234BDA6879
:103630002249BB691343CB6006E0204BDA68BB69C3
:10364000DB431E491340CB603B685B6803F40033E7
:10365000002B06D0194B5A681849BB6913434B60BD
:1036600006E0164B5A68BB69DB43144913404B60B4
:103670003B685B6803F48033002B21D00F4B1A6842
:103680000E49BB6913430B6021E000BF00003210FC
:103690000000311000002210000021100000121064
:1036A000000011100010024000000140000801401D
:1036B000000C0140001001400014014000040140D2
:1036C0000B4B1A68BB69DB43094913400B607B6AEB
:1036D00001337B623B681A687B6A22FA03F3002B92
:1036E0007FF48EAE00BF00BF2C37BD4680BC704754
:1036F0000004014080B483B000AF78600B467B804B
:1037000013467B707B78002B03D07A887B681A6124
:1037100003E07B881A047B681A6100BF0C37BD4642
:1037200080BC704780B586B000AF78607B68002BA6
:1037300001D1012372E27B681B6803F00103002BB7
:1037400000F08780924B5B6803F00C03042B0CD0D5
:103750008F4B5B6803F00C03082B12D18C4B5B681A
:1037600003F48033B3F5803F0BD1894B1B6803F41E
:103770000033002B6CD07B685B68002B68D1012381
:103780004CE27B685B68B3F5803F06D1804B1B68D9
:103790007F4A43F4803313602EE07B685B68002B24
:1037A0000CD17B4B1B687A4A23F480331360784B2F
:1037B0001B68774A23F4802313601DE07B685B68F5
:1037C000B3F5A02F0CD1724B1B68714A43F48023D0
:1037D00013606F4B1B686E4A43F4803313600BE039
:1037E0006B4B1B686A4A23F480331360684B1B6879
:1037F000674A23F4802313607B685B68002B13D037
:10380000FEF7DCFF386108E0FEF7D8FF02463B69AF
:10381000D31A642B01D9032300E25D4B1B6803F428
:103820000033002BF0D014E0FEF7C8FF386108E049
:10383000FEF7C4FF02463B69D31A642B01D9032368
:10384000ECE1534B1B6803F40033002BF0D100E094
:1038500000BF7B681B6803F00203002B63D04C4B56
:103860005B6803F00C03002B0BD0494B5B6803F043
:103870000C03082B1CD1464B5B6803F48033002BF0
:1038800016D1434B1B6803F00203002B05D07B6865
:103890001B69012B01D00123C0E13D4B1B6823F0C4
:1038A000F8027B685B69DB00394913430B603AE03F
:1038B0007B681B69002B20D0364B01221A60FEF773
:1038C0007DFF386108E0FEF779FF02463B69D31AB5
:1038D000022B01D90323A1E12D4B1B6803F0020346
:1038E000002BF0D02A4B1B6823F0F8027B685B6941
:1038F000DB00274913430B6015E0264B00221A60BA
:10390000FEF75CFF386108E0FEF758FF02463B69AE
:10391000D31A022B01D9032380E11D4B1B6803F04E
:103920000203002BF0D17B681B6803F00803002B17
:103930003AD07B689B69002B19D0174B01221A6083
:10394000FEF73CFF386108E0FEF738FF02463B69AE
:10395000D31A022B01D9032360E10D4B5B6A03F0FC
:103960000203002BF0D0012000F0CEFA1CE00A4B3D
:1039700000221A60FEF722FF38610FE0FEF71EFFFB
:1039800002463B69D31A022B08D9032346E100BF44
:10399000001002400000424280044242924B5B6AA7
:1039A00003F00203002BE9D17B681B6803F00403DA
:1039B000002B00F0A6800023FB758B4BDB6903F026
:1039C0008053002B0DD1884BDB69874A43F080532D
:1039D000D361854BDB6903F08053BB60BB68012377
:1039E000FB75824B1B6803F48073002B18D17F4B4F
:1039F0001B687E4A43F480731360FEF7DFFE386174
:103A000008E0FEF7DBFE02463B69D31A642B01D9BE
:103A1000032303E1754B1B6803F48073002BF0D084
:103A20007B68DB68012B06D16F4B1B6A6E4A43F043
:103A3000010313622DE07B68DB68002B0CD16A4B1D
:103A40001B6A694A23F001031362674B1B6A664ACB
:103A500023F0040313621CE07B68DB68052B0CD1A8
:103A6000614B1B6A604A43F0040313625E4B1B6A9E
:103A70005D4A43F0010313620BE05B4B1B6A5A4A39
:103A800023F001031362584B1B6A574A23F00403C7
:103A900013627B68DB68002B15D0FEF78FFE386160
:103AA0000AE0FEF78BFE02463B69D31A41F28832E8
:103AB000934201D90323B1E04B4B1B6A03F002038D
:103AC000002BEED014E0FEF779FE38610AE0FEF735
:103AD00075FE02463B69D31A41F28832934201D9FE
:103AE00003239BE0404B1B6A03F00203002BEED143
:103AF000FB7D012B05D13C4BDB693B4A23F0805316
:103B0000D3617B68DB69002B00F08780364B5B68F4
:103B100003F00C03082B61D07B68DB69022B46D1D4
:103B2000334B00221A60FEF749FE386108E0FEF7C9
:103B300045FE02463B69D31A022B01D903236DE0EF
:103B4000294B1B6803F00073002BF0D17B681B6AC4
:103B5000B3F5803F08D1244B5B6823F400327B68C7
:103B60009B68214913434B601F4B5B6823F474121D
:103B70007B68196A7B685B6A0B431B4913434B6084
:103B80001B4B01221A60FEF719FE386108E0FEF7B0
:103B900015FE02463B69D31A022B01D903233DE0EF
:103BA000114B1B6803F00073002BF0D035E0104B75
:103BB00000221A60FEF702FE386108E0FEF7FEFD03
:103BC00002463B69D31A022B01D9032326E0064B98
:103BD0001B6803F00073002BF0D11EE07B68DB69EB
:103BE000012B07D1012319E00010024000700040B2
:103BF000600042420B4B5B68FB60FB6803F4803261
:103C00007B681B6A9A4206D1FB6803F470127B68DA
:103C10005B6A9A4201D0012300E00023184618375E
:103C2000BD4680BD0010024080B584B000AF786012
:103C300039607B68002B01D10123D0E06A4B1B68FF
:103C400003F007033A689A4210D9674B1B6823F0C8
:103C5000070265493B6813430B60634B1B6803F025
:103C600007033A689A4201D00123B8E07B681B68D9
:103C700003F00203002B20D07B681B6803F00403D1
:103C8000002B05D0594B5B68584A43F4E0635360FE
:103C90007B681B6803F00803002B05D0534B5B685F
:103CA000524A43F460535360504B5B6823F0F00278
:103CB0007B689B684D4913434B607B681B6803F02E
:103CC0000103002B40D07B685B68012B07D1474B79
:103CD0001B6803F40033002B15D101237FE07B68C0
:103CE0005B68022B07D1414B1B6803F00073002B6C
:103CF00009D1012373E03D4B1B6803F00203002B45
:103D000001D101236BE0394B5B6823F003027B6830
:103D10005B68364913434B60FEF750FDF8600AE0DC
:103D2000FEF74CFD0246FB68D31A41F288329342FB
:103D300001D9032353E02D4B5B6803F00C027B6831
:103D40005B689B009A42EBD1274B1B6803F007038B
:103D50003A689A4210D2244B1B6823F0070222498A
:103D60003B6813430B60204B1B6803F007033A6862
:103D70009A4201D0012332E07B681B6803F0040300
:103D8000002B08D0194B5B6823F4E0627B68DB688A
:103D9000164913434B607B681B6803F00803002B34
:103DA00009D0124B5B6823F460527B681B69DB000F
:103DB0000E4913434B6000F021F802460B4B5B6841
:103DC0001B0903F00F030A49CB5C22FA03F3094AEB
:103DD0001360094B1B681846FEF7AEFC002318461B
:103DE0001037BD4680BD00BF0020024000100240D9
:103DF000B4C90008040000200800002080B487B087
:103E000000AF0023FB600023BB6000237B61002325
:103E10007B6000233B611E4B5B68FB60FB6803F02B
:103E20000C03042B02D0082B03D027E0194B3B6175
:103E300027E0FB689B0C03F00F03174AD35C7B6001
:103E4000FB6803F48033002B10D0114B5B685B0CD4
:103E500003F00103114AD35CBB607B680D4A03FB8E
:103E600002F2BB68B2FBF3F37B6104E07B680C4AAF
:103E700002FB03F37B617B693B6102E0054B3B6125
:103E800000BF3B6918461C37BD4680BC704700BF69
:103E90000010024000127A00CCC90008DCC90008FA
:103EA00000093D0080B400AF024B1B681846BD46B8
:103EB00080BC70470400002080B500AFFFF7F2FF20
:103EC0000246054B5B681B0A03F007030349CB5C02
:103ED00022FA03F3184680BD00100240C4C900084E
:103EE00080B500AFFFF7DEFF0246054B5B68DB0ADB
:103EF00003F007030349CB5C22FA03F3184680BDA5
:103F000000100240C4C9000880B485B000AF7860DA
:103F10000A4B1B680A4AA2FB03235B0A7A6802FB6E
:103F200003F3FB6000BFFB685A1EFA60002BF9D157
:103F300000BF00BF1437BD4680BC7047040000209E
:103F4000D34D621080B586B000AF786000233B612E
:103F50000023FB607B681B6803F00103002B7DD00E
:103F60000023FB754F4BDB6903F08053002B0DD111
:103F70004C4BDB694B4A43F08053D361494BDB69BF
:103F800003F08053BB60BB680123FB75464B1B6885
:103F900003F48073002B18D1434B1B68424A43F44F
:103FA00080731360FEF70AFC386108E0FEF706FC38
:103FB00002463B69D31A642B01D903236DE03A4BC7
:103FC0001B6803F48073002BF0D0364B1B6A03F49C
:103FD0004073FB60FB68002B2ED07B685B6803F4AA
:103FE0004073FA689A4227D02E4B1B6A23F4407321
:103FF000FB602E4B01221A602C4B00221A60294ACA
:10400000FB681362FB6803F00103002B14D0FEF77A
:10401000D5FB38610AE0FEF7D1FB02463B69D31AB3
:1040200041F28832934201D9032336E01D4B1B6ACB
:1040300003F00203002BEED01A4B1B6A23F44072EC
:104040007B685B68174913430B62FB7D012B05D12D
:10405000144BDB69134A23F08053D3617B681B68E0
:1040600003F00203002B08D00E4B5B6823F44042A0
:104070007B689B680B4913434B607B681B6803F0AC
:104080001003002B08D0074B5B6823F480027B6889
:10409000DB68044913434B60002318461837BD46BC
:1040A00080BD00BF0010024000700040400442424A
:1040B00080B588B000AF786000237B610023FB618E
:1040C00000233B610023FB600023BB617B68102B56
:1040D0000AD07B68102B00F28A807B68012B45D0C8
:1040E0007B68022B75D082E0464B5B68FB60454BDA
:1040F0001B6803F08073002B7BD0FB689B0C03F0E4
:104100000F03414AD35C3B61FB6803F48033002B0F
:1041100015D03C4B5B685B0C03F001033B4AD35C5E
:104120007B61FB6803F48033002B0DD0384A7B6938
:10413000B2FBF3F23B6902FB03F3FB6104E03B6972
:10414000344A02FB03F3FB612E4B5B6803F48003EC
:10415000B3F5800F02D1FB69BB614AE0FB695B00EC
:104160002D4AA2FB03235B08BB6142E0254B1B6A7F
:10417000FB60FB6803F44073B3F5807F08D1FB68F4
:1041800003F00203002B03D04FF40043BB611FE098
:10419000FB6803F44073B3F5007F09D1194B5B6AE8
:1041A00003F00203002B03D049F64043BB610FE04C
:1041B000FB6803F44073B3F5407F1CD1114B1B68BF
:1041C00003F40033002B16D04FF22443BB6112E0FE
:1041D00011E0FFF785FE02460A4B5B689B0B03F07C
:1041E000030301335B00B2FBF3F3BB6104E000BFE8
:1041F00002E000BF00E000BFBB6918462037BD46A3
:1042000080BD00BF00100240E0C90008F0C90008EE
:1042100000127A0000093D00ABAAAAAA80B582B0BC
:1042200000AF78607B68002B01D1012376E07B68CA
:104230005B6A002B08D17B685B68B3F5827F09D08D
:104240007B680022DA6105E07B6800221A617B68E6
:1042500000225A617B6800229A627B6893F8513091
:10426000DBB2002B06D17B68002283F850207868EF
:10427000FEF76CF87B68022283F851207B681B688C
:104280001A687B681B6822F040021A607B685B68D2
:1042900003F482727B689B6803F404431A437B68CF
:1042A000DB6803F400631A437B681B6903F00203B5
:1042B0001A437B685B6903F001031A437B689B69BF
:1042C00003F400731A437B68DB6903F038031A4375
:1042D0007B681B6A03F0800342EA03017B689B6AE8
:1042E00003F400527B681B680A431A607B689B6971
:1042F0001A0C7B681B6802F004025A607B681B681A
:10430000DA697B681B6822F40062DA617B6800224C
:104310005A657B68012283F851200023184608372C
:10432000BD4680BD80B588B000AFF860B9603B6025
:104330001346FB80FEF742FAF861FB887B83FB683B
:1043400093F85130DBB2012B01D002232AE1BB6884
:10435000002B02D0FB88002B01D1012322E1FB6856
:1043600093F85030012B01D102231BE1FB6801229D
:1043700083F85020FB68032283F85120FB68002259
:104380005A65FB68BA681A63FB68FA889A86FB6804
:10439000FA88DA86FB6800229A63FB6800229A8713
:1043A000FB680022DA87FB6800225A64FB6800225F
:1043B0001A64FB689B68B3F5004F0FD1FB681B685C
:1043C0001A68FB681B6822F040021A60FB681B68D1
:1043D0001A68FB681B6842F480421A60FB681B681D
:1043E0001B6803F04003402B07D0FB681B681A686A
:1043F000FB681B6842F040021A60FB68DB68B3F59B
:10440000006F52D1FB685B68002B02D07B8B012BC5
:1044100045D1FB681B6B1A88FB681B68DA60FB6878
:104420001B6B9A1CFB681A63FB68DB8E9BB2013B1B
:104430009AB2FB68DA8632E0FB681B689B6803F07F
:104440000203022B12D1FB681B6B1A88FB681B68E6
:10445000DA60FB681B6B9A1CFB681A63FB68DB8ED7
:104460009BB2013B9AB2FB68DA8618E0FEF7A6F928
:104470000246FB69D31A3A689A4203D83B68B3F103
:10448000FF3F02D13B68002B09D1FB68012283F872
:104490005120FB68002283F85020032382E0FB6850
:1044A000DB8E9BB2002BC7D153E0FB685B68002B0F
:1044B00002D07B8B012B47D1FB681A6BFB681B6812
:1044C0000C3312781A70FB681B6B5A1CFB681A635A
:1044D000FB68DB8E9BB2013B9AB2FB68DA8633E065
:1044E000FB681B689B6803F00203022B13D1FB6877
:1044F0001A6BFB681B680C3312781A70FB681B6B15
:104500005A1CFB681A63FB68DB8E9BB2013B9AB2B4
:10451000FB68DA8618E0FEF751F90246FB69D31A08
:104520003A689A4203D83B68B3F1FF3F02D13B6837
:10453000002B09D1FB68012283F85120FB6800227F
:1045400083F8502003232DE0FB68DB8E9BB2002B09
:10455000C6D1FA693968F86800F05AFA0346002BA8
:1045600002D0FB6820225A65FB689B68002B0AD1A9
:1045700000237B61FB681B68DB687B61FB681B6851
:104580009B687B617B69FB68012283F85120FB6893
:10459000002283F85020FB685B6D002B01D00123C3
:1045A00000E0002318462037BD4680BD80B58AB0A4
:1045B00000AFF860B9607A607B8001237B62FEF710
:1045C000FDF83862FB6893F85130FB77FB685B6855
:1045D000BB617B88FB82FB7F012B0CD0BB69B3F5F1
:1045E000827F06D1FB689B68002B02D1FB7F042BE6
:1045F00001D002237FE1BB68002B05D07B68002B34
:1046000002D07B88002B01D1012374E1FB6893F871
:104610005030012B01D102236DE1FB68012283F8A8
:104620005020FB6893F85130DBB2042B03D0FB68B9
:10463000052283F85120FB6800225A65FB687A68DE
:104640009A63FB687A88DA87FB687A889A87FB68BE
:10465000BA681A63FB687A88DA86FB687A889A8671
:10466000FB6800221A64FB6800225A64FB681B681E
:104670001B6803F04003402B07D0FB681B681A68D7
:10468000FB681B6842F040021A60FB68DB68B3F508
:10469000006F7ED1FB685B68002B02D0FB8A012B88
:1046A0006CD1FB681B6B1A88FB681B68DA60FB68BF
:1046B0001B6B9A1CFB681A63FB68DB8E9BB2013B89
:1046C0009AB2FB68DA8659E0FB681B689B6803F0C6
:1046D0000203022B1BD1FB68DB8E9BB2002B16D092
:1046E0007B6A012B13D1FB681B6B1A88FB681B6864
:1046F000DA60FB681B6B9A1CFB681A63FB68DB8E35
:104700009BB2013B9AB2FB68DA8600237B62FB68AE
:104710001B689B6803F00103012B19D1FB68DB8F39
:104720009BB2002B14D0FB681B68DA68FB689B6B9C
:1047300092B21A80FB689B6B9A1CFB689A63FB68B9
:10474000DB8F9BB2013B9AB2FB68DA8701237B6265
:10475000FEF734F802463B6AD31A3A6B9A420DD8F8
:104760003B6BB3F1FF3F09D0FB68012283F8512076
:10477000FB68002283F850200323BCE0FB68DB8E3B
:104780009BB2002BA0D1FB68DB8F9BB2002B9BD18F
:1047900082E0FB685B68002B02D0FB8A012B71D1A1
:1047A000FB681A6BFB681B680C3312781A70FB6885
:1047B0001B6B5A1CFB681A63FB68DB8E9BB2013BC8
:1047C0009AB2FB68DA865DE0FB681B689B6803F0C1
:1047D0000203022B1CD1FB68DB8E9BB2002B17D08F
:1047E0007B6A012B14D1FB681A6BFB681B680C33C6
:1047F00012781A70FB681B6B5A1CFB681A63FB6803
:10480000DB8E9BB2013B9AB2FB68DA8600237B62A7
:10481000FB681B689B6803F00103012B19D1FB683F
:10482000DB8F9BB2002B14D0FB681B68DA68FB6837
:104830009B6BD2B21A70FB689B6B5A1CFB689A6325
:10484000FB68DB8F9BB2013B9AB2FB68DA870123DE
:104850007B62FDF7B3FF02463B6AD31A3A6B9A427A
:1048600003D83B6BB3F1FF3F02D13B6B002B09D167
:10487000FB68012283F85120FB68002283F8502056
:10488000032338E0FB68DB8E9BB2002B9CD1FB68D6
:10489000DB8F9BB2002B97D13A6A396BF86800F036
:1048A000B7F80346002B08D0FB6820225A65FB6846
:1048B000002283F8502001231DE0FB689B68002B39
:1048C0000AD100233B61FB681B68DB683B61FB6826
:1048D0001B689B683B613B69FB68012283F85120A0
:1048E000FB68002283F85020FB685B6D002B01D031
:1048F000012300E0002318462837BD4680BD000094
:1049000080B588B000AFF860B9603B601346FB71BA
:10491000FDF754FF0246BB6A9B1A3A681344FB61D9
:10492000FDF74CFFB861394B1B685B011B0DFA6941
:1049300002FB03F37B6154E03B68B3F1FF3F50D0CF
:10494000FDF73CFF0246BB69D31AFA699A4202D9C5
:10495000FB69002B3DD1FB681B685A68FB681B682C
:1049600022F0E0025A60FB685B68B3F5827F11D1E8
:10497000FB689B68B3F5004F04D0FB689B68B3F5F8
:10498000806F07D1FB681B681A68FB681B6822F000
:1049900040021A60FB689B6AB3F5005F0FD1FB68A9
:1049A0001B681A68FB681B6822F400521A60FB68D7
:1049B0001B681A68FB681B6842F400521A60FB68A7
:1049C000012283F85120FB68002283F85020032342
:1049D00017E07B69002B01D10023FB617B69013B60
:1049E0007B61FB681B689A68BB681340BA689A428F
:1049F0000CBF01230023DBB21A46FB799A429BD1FC
:104A0000002318462037BD4680BD00BF04000020AB
:104A100080B586B002AFF860B9607A607B680093B9
:104A2000BB6801220221F868FFF76AFF0346002BEA
:104A300007D0FB685B6D43F02002FB685A650323D7
:104A400013E07B680093BB6800228021F868FFF7C1
:104A500057FF0346002B07D0FB685B6D43F0200235
:104A6000FB685A65032300E0002318461037BD4653
:104A700080BD80B582B000AF78607B68002B01D12B
:104A8000012342E07B6893F84130DBB2002B06D172
:104A90007B68002283F840207868FDF7A1FC7B68E2
:104AA000242283F841207B681B68DA687B681B68D6
:104AB00022F40052DA60786800F072F97B681B68B3
:104AC0001A697B681B6822F490421A617B681B6834
:104AD0005A697B681B6822F02A025A617B681B684E
:104AE000DA687B681B6842F40052DA607B68002257
:104AF0005A647B68202283F841207B68202283F857
:104B000042207B6800225A63002318460837BD46BE
:104B100080BD80B58AB002AFF860B9603B601346D3
:104B2000FB8000237B61FB6893F84130DBB2202BD4
:104B300075D1BB68002B02D0FB88002B01D101236B
:104B40006EE0FB6800225A64FB68212283F8412052
:104B5000FDF734FE7861FB68FA889A84FB68FA886E
:104B6000DA84FB689B68B3F5805F08D1FB681B693A
:104B7000002B04D10023FB61BB68BB6103E0BB6871
:104B8000FB610023BB612EE03B6800937B69002240
:104B90008021F86800F048F80346002B05D0FB6838
:104BA000202283F8412003233AE0FB69002B0BD13C
:104BB000BB691B881A46FB681B68C2F308025A606F
:104BC000BB690233BB6107E0FB691A78FB681B68AD
:104BD0005A60FB690133FB61FB68DB8C9BB2013BD4
:104BE0009AB2FB68DA84FB68DB8C9BB2002BCBD1DA
:104BF0003B6800937B6900224021F86800F014F8BC
:104C00000346002B05D0FB68202283F841200323B4
:104C100006E0FB68202283F84120002300E0022305
:104C200018462037BD4680BD80B586B000AFF8601D
:104C3000B9603B601346FB713BE03B6AB3F1FF3F59
:104C400037D0FDF7BBFD02463B68D31A3A6A9A4259
:104C500002D33B6A002B01D103233AE0FB681B68B7
:104C6000DB6803F00403002B23D0BB68802B20D02B
:104C7000BB68402B1DD0FB681B681B6803F0080352
:104C8000082B16D100237B61FB681B681B687B61C6
:104C9000FB681B685B687B617B69F86800F01DF846
:104CA000FB6808225A64FB68002283F84020012335
:104CB0000FE0FB681B681A68BB681340BA689A4229
:104CC0000CBF01230023DBB21A46FB799A42B4D011
:104CD000002318461837BD4680BD80B495B000AF9C
:104CE00078607B681B680C337B637B6B53E8003F09
:104CF0003B633B6B23F49073FB647B681B680C3352
:104D0000FA6C3A64FB63F96B3A6C41E80023BB63CD
:104D1000BB6B002BE5D17B681B6814333B623B6A9D
:104D200053E8003FFB61FB6923F00103BB647B6830
:104D30001B681433BA6CFA62BB62B96AFA6A41E85A
:104D400000237B627B6A002BE5D17B681B6B012B08
:104D500019D17B681B680C33FB60FB6853E8003F8C
:104D6000BB60BB6823F010037B647B681B680C335B
:104D70007A6CBA617B617969BA6941E800233B6169
:104D80003B69002BE5D17B68202283F842207B68B9
:104D900000221A6300BF5437BD4680BC7047000034
:104DA00080B584B000AF78607B681B681B6923F412
:104DB00040517B68DA687B681B680A431A617B682C
:104DC0009A687B681B691A437B685B691343BB6005
:104DD0007B681B68DB6823F4B05323F00C037A680C
:104DE0001268B9680B43D3607B681B685B6923F466
:104DF00040717B689A697B681B680A435A617B68CB
:104E00001B682C4A934203D1FFF76AF8F86002E06E
:104E1000FFF752F8F860FA6813469B0013449A00B3
:104E20001A447B685B689B00B2FBF3F3224AA2FB47
:104E300003235B091901FA6813469B0013449A0087
:104E40001A447B685B689B00B2FBF3F21A4BA3FB2E
:104E500002035B09642000FB03F3D31A1B01323306
:104E6000154AA2FB03235B0903F0F0031944FA6817
:104E700013469B0013449A001A447B685B689B00AE
:104E8000B2FBF3F20C4BA3FB02035B09642000FBB3
:104E900003F3D31A1B013233074AA2FB03235B0936
:104EA00003F00F027B681B680A449A6000BF10374A
:104EB000BD4680BD003801401F85EB5180B500AF75
:104EC0000449054803F09AFE03461A46034B1A703C
:104ED00000BF80BDF423002010000020F02300203C
:104EE00080B400AF00231846BD4680BC704780B533
:104EF00082B000AF0346FB71FB791846FCF78EF9D0
:104F0000034618460837BD4680BD80B582B000AF65
:104F10000346FB71FB791846FCF76CFA034618460A
:104F20000837BD4680BD80B584B000AFB9607A60F7
:104F30003B600346FB73F87B3B687A68B968FCF713
:104F40006DFA034618461037BD4680BD80B584B063
:104F500000AFB9607A603B600346FB73F87B3B6847
:104F60007A68B968FCF7C4FA034618461037BD469C
:104F700080BD80B582B000AF03463A60FB710B463E
:104F8000BB71B979FB793A681846FCF735FB0346E3
:104F900018460837BD4680BD80B584B000AF0346D3
:104FA000FB71FB79084A9B0013445B685B68FA79E4
:104FB00005490A44127A104698470346FB73FB7B67
:104FC00018461037BD4680BD1826002080B584B035
:104FD00000AF0346FB710023FB73FB790D4AD35CE2
:104FE000002B11D1FB790B4A0121D154FB79094ADD
:104FF0009B0013445B681B68FA7906490A44127ADD
:10500000104698470346FB73FB7B18461037BD4696
:1050100080BD00BF1826002090B587B000AFB960F2
:105020007A603B600346FB73FB7B0A4A9B00134498
:105030005B689C68FB7B074A1344187A3B687A6874
:10504000B968A0470346FB75FB7D18461C37BD4673
:1050500090BD00BF1826002090B587B000AFB960A2
:105060007A603B600346FB73FB7B0A4A9B00134458
:105070005B68DC68FB7B074A1344187A3B687A68F4
:10508000B968A0470346FB75FB7D18461C37BD4633
:1050900090BD00BF1826002080B584B000AF034645
:1050A0003A60FB710B46BB71FB79094A9B001344C4
:1050B0005B681B69FA7906490A44107AB9793A683B
:1050C00098470346FB73FB7B18461037BD4680BDEF
:1050D0001826002080B487B000AFF860B9607A600D
:1050E000FB687B61BB683B6107E03A69531C3B612D
:1050F0007B69591C796112781A707B685A1E7A6034
:10510000002BF2D100BF00BF1C37BD4680BC7047EA
:1051100080B487B000AFF860B9607A60FB687B61EB
:1051200005E07B695A1C7A61BA68D2B21A707B6852
:105130005A1E7A60002BF4D100BF00BF1C37BD4659
:1051400080BC704780B489B000AFF860B9607A6005
:10515000FB68FB61BB68BB6100237B6100BF7B68B0
:105160005A1E7A60002B0DD0FB695A1CFA611B781D
:105170001946BB695A1CBA611B78CB1A7B617B69E3
:10518000002BECD07B6918462437BD4680BC7047A5
:1051900080B483B000AF7860396002E07B6801338F
:1051A0007B607B681B78002B05D07B681B781A46D8
:1051B0003B689342F2D17B681B7818460C37BD469A
:1051C00080BC704780B485B000AF78603960002340
:1051D000BB60BB68FB603BE03149FA6813465B008B
:1051E00013449B000B441B68002B2CD02C49FA68FD
:1051F00013465B0013449B000B441A687B6803F55D
:1052000080531B689A4220D12549FA6813465B00F7
:1052100013449B000B4404331A687B6803F58053E6
:105220009B689A4211D11E49FA6813465B001344E9
:105230009B000B4408331A887B6803F58053DB8896
:105240009A4202D107E00123BB60FB680133FB6097
:10525000FB68012BC0D9FB68022B09D1BB68002B6E
:1052600002D13B68022B01D1002313E0122311E08D
:105270003B68002B0BD10A49FA6813465B001344C4
:105280009B000B440A331B88B3F5807F01D11023A8
:1052900000E0002318461437BD4680BC704700BFAD
:1052A0000024002080B483B000AF00237B6002E0C4
:1052B0007B6801337B607B68012B09D80A497A68D7
:1052C00013465B0013449B000B441B68002BEFD17B
:1052D0007B68022B14BF01230023DBB218460C3776
:1052E000BD4680BC704700BF0024002080B485B05C
:1052F00000AF786039600023FB602EE05849FA68FF
:1053000013465B0013449B000B441A687B6803F54B
:1053100080531B689A421DD15149FA6813465B00BD
:1053200013449B000B4404331A687B6803F58053D5
:105330009B689A420ED14A49FA6813465B001344AF
:105340009B000B4408331A887B6803F58053DB8885
:105350009A4206D0FB680133FB60FB68012BCDD974
:1053600000E000BFFB68022B48D10023FB6002E095
:10537000FB680133FB60FB68012B09D83849FA68E8
:1053800013465B0013449B000B441B68002BEFD1BA
:10539000FB68022B01D100235DE07B6803F580539D
:1053A00019682F48FA6813465B0013449B000344B6
:1053B00019607B6803F5805399682948FA68134699
:1053C0005B0013449B000344043319607B6803F5BE
:1053D0008053D8882249FA6813465B0013449B0027
:1053E0000B44083302461A801D49FA6813465B00D5
:1053F00013449B000B440A3300221A803B68002BA5
:105400000CD01749FA6813465B0013449B000B4409
:105410000A331B88002B01D000231CE03B68002BC3
:105420000BD10F49FA6813465B0013449B000B44F1
:105430000A331B88013399B201E04FF480710848A8
:10544000FA6813465B0013449B0003440A330A4680
:105450001A80FB68013318461437BD4680BC70477C
:105460000024002080B485B000AF78607B68013BE9
:105470007B607B68012B2ED81B497A6813465B0042
:1054800013449B000B440A331B88FB81FB89B3F553
:10549000807F01D10023FB81FB89002B02D0FB8997
:1054A000013BFB8110497A6813465B0013449B0063
:1054B0000B440A33FA891A80FB89002B08D10A4968
:1054C0007A6813465B0013449B000B4400221A6069
:1054D00000237B7301E002237B737B7B1846143728
:1054E000BD4680BC704700BF0024002080B485B05A
:1054F00000AF78600023FB6016E01049FA6813469D
:105500005B0013449B000B441B687A689A4208D1E5
:105510000A49FA6813465B0013449B000B440022BF
:105520001A60FB680133FB60FB68012BE5D900BF03
:1055300000BF1437BD4680BC704700BF0024002068
:1055400080B586B000AF78600023FB737B6803F5FD
:1055500080531B79002B40D07B6803F58053DB6AB6
:105560007B617B6803F580535878796801237A69F9
:10557000FFF772FD0346002B02D00123FB732CE0E2
:105580007B6803F5805300221A717B6803F5805312
:105590001B6A7A69D21A7B6803F580539B699A4229
:1055A0001BD27B6803F58053DB783B6112E07B689C
:1055B00003F580539B697A6913447B617B6803F52B
:1055C00080535878796801237A69FFF745FD3B6974
:1055D000013B3B613B69012BE9D8FB7B184618373F
:1055E000BD4680BD80B584B000AF786039600023CF
:1055F000FB737B6803F58053DB6A3A689A421ED0DE
:105600007868FFF79DFF0346FB73FB7B002B16D1E9
:105610007B6803F580535878796801233A68FFF76F
:10562000FBFC0346002B04D04FF0FF333B6001230B
:10563000FB737B6803F580531A463B68D362FB7BA0
:1056400018461037BD4680BD80B584B000AF786085
:105650007868FFF775FF0346FB73FB7B002B40F078
:10566000AD807B6803F580531B78032B40F0988056
:105670007B6803F580535B79012B40F0918078685B
:105680007B6803F580535B891A460021FFF740FDD4
:105690007B68552283F8FE217B68AA2283F8FF21CC
:1056A0007B6852221A707B6852225A707B68612292
:1056B0009A707B684122DA707B68722283F8E42159
:1056C0007B68722283F8E5217B68412283F8E6211A
:1056D0007B68612283F8E7217B6803F580531B69AF
:1056E000DAB27B6883F8E8217B6803F580531B6995
:1056F0009BB21B0A9BB2DAB27B6883F8E9217B6814
:1057000003F580531B691B0CDAB27B6883F8EA212E
:105710007B6803F580531B691B0EDAB27B6883F844
:10572000EB217B6803F58053DB68DAB27B6883F892
:10573000EC217B6803F58053DB689BB21B0A9BB2AC
:10574000DAB27B6883F8ED217B6803F58053DB6870
:105750001B0CDAB27B6883F8EE217B6803F580537B
:10576000DB681B0EDAB27B6883F8EF217B6803F5F8
:105770008053DB6901337A6802F58052D3627B681B
:1057800003F58053587879687B6803F58053DA6AAB
:105790000123FFF761FC7B6803F5805300225A71F7
:1057A0007B6803F580535B78002200211846FFF7E1
:1057B00073FC0346002B01D00123FB73FB7B1846CF
:1057C0001037BD4680BD80B483B000AF78603960CB
:1057D0003B68023B3B607B6803F580535B69023B9F
:1057E0003A689A4201D300230CE07B6803F58053AA
:1057F0009B781A463B6803FB02F27B6803F58053F3
:105800009B6A134418460C37BD4680BC704780B570
:1058100086B000AF786039603B68012B06D97B68A1
:1058200003F580535B693A689A4202D301237B6196
:10583000E4E04FF0FF337B617B6803F580531B7816
:10584000032B00F09880032B00F3CE80012B02D0B5
:10585000022B5FD0C8E03B68FB60FB685B08FA681E
:105860001344FB607B6803F580531A6A7B6803F579
:1058700080535B891946FB68B3FBF1F31344194667
:105880007868FFF7AFFE0346002B40F0B080FB685E
:105890005A1CFA607A6802F580525289B3FBF2F121
:1058A00001FB02F29B1A7A68D35CBB607B6803F54C
:1058B00080531A6A7B6803F580535B891946FB683D
:1058C000B3FBF1F3134419467868FFF78BFE0346E8
:1058D000002B40F08E807B6803F580535B891A466D
:1058E000FB68B3FBF2F101FB02F29B1A7A68D35C0E
:1058F0001B021A46BB681343BB603B6803F00103FD
:10590000002B02D0BB681B0902E0BB68C3F30B038A
:105910007B6173E07B6803F580531A6A7B6803F54B
:1059200080535B895B089BB219463B68B3FBF1F37C
:10593000134419467868FFF755FE0346002B5AD1E9
:105940003B685B007A6802F580525289B3FBF2F142
:1059500001FB02F29B1A7A6813443B613B690133F5
:105960001B781B021AB23B691B781BB213431BB294
:105970009BB27B6142E07B6803F580531A6A7B68C7
:1059800003F580535B899B089BB219463B68B3FBC8
:10599000F1F3134419467868FFF724FE0346002B01
:1059A0002BD13B689B007A6802F580525289B3FB89
:1059B000F2F101FB02F29B1A7A6813443B613B69E6
:1059C00003331B781A063B6902331B781B0413430D
:1059D0003A6901321278120213433A69127813437A
:1059E00023F070437B6109E001237B6106E000BF87
:1059F00004E000BF02E000BF00E000BF7B69184682
:105A00001837BD4680BD80B588B000AFF860B9607A
:105A10007A60BB68012B06D9FB6803F580535B698C
:105A2000BA689A4202D30223FB773AE1FB6803F596
:105A300080531B78032B00F0D080032B00F32781C9
:105A4000012B03D0022B00F08F8020E1BB687B612B
:105A50007B695B087A6913447B61FB6803F58053BB
:105A60001A6AFB6803F580535B8919467B69B3FBAF
:105A7000F1F313441946F868FFF7B4FD0346FB77CA
:105A8000FB7F002B40F006817B695A1C7A61FA6823
:105A900002F580525289B3FBF2F101FB02F29B1A2C
:105AA000FA681344BB61BB6803F00103002B0DD0FF
:105AB000BB691B785BB203F00F035AB27B68DBB2A1
:105AC0001B015BB213435BB2DBB201E07B68DBB26C
:105AD000BA691370FB6803F5805301221A71FB68E1
